:020000040800F2
:1000000060080020D5020008733B00084B37000849
:10001000713B0008591E0008ED4200080000000076
:10002000000000000000000000000000773B000816
:100030005B1E000800000000753B0008413C000802
:10004000EF020008EF020008EF020008EF020008CC
:10005000EF020008EF020008EF020008EF020008BC
:10006000EF020008EF020008EF020008EF020008AC
:10007000EF020008EF020008EF020008EF0200089C
:10008000EF020008EF020008EF020008EF0200088C
:10009000EF020008EF020008EF020008EF0200087C
:1000A000EF020008EF020008EF020008EF0200086C
:1000B000EF020008EF020008EF020008EF0200085C
:1000C000EF020008EF020008EF020008EF0200084C
:1000D000EF020008D5420008E1420008EF020008E4
:1000E000EF020008EF020008EF020008EF0200082C
:1000F000EF020008EF020008EF020008EF0200081C
:10010000EF020008EF020008EF020008EF0200080B
:10011000EF020008EF020008E93C0008EF020008C7
:10012000EF020008EF020008EF020008EF020008EB
:10013000EF020008EF020008EF020008EF020008DB
:10014000EF020008EF020008EF020008EF020008CB
:10015000EF020008EF020008EF020008EF020008BB
:10016000EF020008EF020008EF020008EF020008AB
:10017000EF020008EF020008EF0200080000000094
:10018000EF020008EF02000800F002F800F092F819
:100190000AA090E8000C82448344AAF10107DA45E2
:1001A00001D100F087F8AFF2090EBAE80F0013F0A2
:1001B000010F18BFFB1A43F00103184774490000F0
:1001C00094490000103A24BF78C878C1FAD8520781
:1001D00024BF30C830C144BF04680C6070470000C1
:1001E0000023002400250026103A28BF78C1FBD840
:1001F000520728BF30C148BF0B6070476E2900F01E
:100200000382702900F04D83662904F00284652979
:1002100004F0FF83672904F0FC83612904F0FB8369
:1002200003681B0A28BF41F08001692900F0B081F2
:10023000642900F0AD81752900F0AA816F2900F0D2
:10024000DA82782900F01983E92900F07582E4291F
:1002500000F07282F52900F06F82EF2900F0D7825A
:10026000F82900F018830368DB0928BF41F08001FA
:10027000632901F01B80732901F02080E32901F03C
:100280002B80F32901F03080002070471FB504F067
:10029000BBFB01F07FF804000020002104F09EFB6E
:1002A000401C60600020002104F082FBE0601FBD64
:1002B00010B510BD01F040F81146FFF7E7FF04F05C
:1002C00011FA01F01DF903B4FFF7F2FF03BC01F0CE
:1002D00061F900000948804709480047FEE7FEE74A
:1002E000FEE7FEE7FEE7FEE7FEE7FEE7FEE7FEE7E6
:1002F00004480549054A064B70470000D93C0008F0
:1003000089010008600200206008002060040020CD
:100310006004002053EA020C00F069802DE9F04BE4
:100320004FF00006002B1FBFB3FA83F503FA05F464
:1003300024FA05F65E4012BF1643B2FA82F502FABD
:1003400005F4C5F120051EBF22FA05FC44EA0C04A1
:10035000203556EA044C4FEA144418BF641C4FF091
:1003600000084FF00009904271EB030C39D30029CB
:1003700019BFB1FA81F701FA07F6B0FA80F700FA6F
:1003800007F6C7F120071EBF20FA07FC46EA0C0655
:100390002037B6FBF4FCA7EB0507103F07F01F0B57
:1003A000CBF120060CFA0BFB2CFA06F644BFB34641
:1003B0000026202FA4BF5E464FF0000B5BEA060C20
:1003C00008BF4FF0010B19EB0B09ABFB027C48EBAC
:1003D0000608C01B06FB02CC0BFB03CC71EB0C0127
:1003E000C1E70B46024641464846BDE8F08B13B5CF
:1003F0004FF000004FF00001AFF30080BDE81C405B
:10040000704700007CB51D4616460C00009001D0D8
:100410002044401E074B7B442A46694601903046E3
:1004200000F00BF905461CB10020694600F018F9F0
:1004300028467CBD5102000010B5431C02E010F8B4
:10044000011B71B18107FAD14FF0013202C88C1A39
:100450008C4314EAC211F9D0C01A0A0603D0C01E98
:1004600010BDC01A10BD0A0401D0801E10BD0902C3
:10047000FCD0401E10BD4FF0000200B5134694465C
:100480009646203922BFA0E80C50A0E80C50B1F1EC
:100490002001BFF4F7AF090728BFA0E80C5048BF00
:1004A0000CC05DF804EB890028BF40F8042B08BF9E
:1004B000704748BF20F8022B11F0804F18BF00F89A
:1004C000012B704770477047704770B504468569C7
:1004D0000068C10601D5302600E02026C00707D0FD
:1004E00070BDD4E9012130469047206A401C20624B
:1004F0006D1EF6D570BD70B5044685690078C007DD
:1005000007D170BDD4E9012120209047206A401C0A
:1005100020626D1EF6D570BD09684A0501D540B24E
:100520007047C905FCD500B2704709684A0501D576
:10053000C0B27047C905FCD580B2704770B50C4693
:100540000546012A05D02878800600D5EA690023EF
:1005500002E0012305E05B1C934202D2E05C00282C
:10056000F9D1A869E618C01AA861286A1844286257
:100570002846FFF7AAFF04E0D5E9012114F8010B92
:100580009047B442F8D32846FFF7B5FF70BD00008E
:100590002DE9F0410646002410687529314616A55C
:1005A00010D0FFF7B9FF002802DA404213A507E098
:1005B00031688A0701D512A502E0490704D511A5C3
:1005C000012401E0FFF7B1FF00210A2206F1240710
:1005D00009E0B0FBF2FCB0FBF2F302FB1C00303090
:1005E00078541846491C0028F3D123462A46304641
:1005F000BDE8F04100F069BA000000002D000000E5
:100600002B0000002000000011680268006A5305FA
:1006100001D508700AE0D30501D5088006E013066D
:1006200003D5C217C1E9000200E00860012070474D
:1006300001694A1C02610878704700B58FB0CDE9A6
:1006400001310021059105497944CDE90310114696
:10065000684600F031F90FB000BD0000E5FFFFFF74
:100660000A6802F8010B0A607047D1E900239A4238
:1006700002D2531C0B601070704700002DE9FF5F21
:1006800015468A460446DFF8AC80F8440027D8E9CE
:1006900000103E46CDE9001010E03AF816106A4608
:1006A00002A800F025FE411C07D02178890603D559
:1006B000E269391891420DD80744761C20788006EB
:1006C00002D5E069B84205DDAE42E6DB3AF8160035
:1006D0000028E2D1A069C01BA0612046FFF7F5FE0B
:1006E000D8E90010CDE90010002017E03AF8181002
:1006F0006A4602A800F0FCFDB0F1FF3F81460BD036
:1007000000250DF1080B05E0D4E901211BF80500D7
:1007100090476D1C4D45F7D308F10100B04280466B
:10072000E4DB206A384420622046FFF7E4FEBDE89F
:10073000FF9F0000A64300002DE9F0418046D21D36
:1007400022F007020025D2E90002F52915A614D0EF
:10075000011E72F1000106DA0023D0EB030063EB07
:10076000020211A608E0D8F800108B0701D50FA6E9
:1007700002E0490701D50EA601251146002408F123
:10078000240704E000F05CF930323A55641C50EA6A
:100790000102F7D12B46324621464046BDE8F041E2
:1007A00000F093B9000000002D0000002B000000B5
:1007B0002000000030B4002100F1240408E002F021
:1007C0000705D208303542EA4372DB086554491CFC
:1007D00052EA0305F3D10468002310A2250707D5C8
:1007E000A40600D421B1C46901230DA2641EC46112
:1007F00030BC00F06AB910B5044621461068FFF716
:1008000094FE02462046BDE810400023D2E7D21DE8
:1008100022F00701D1E90023CCE70000000000002E
:1008200030000000F0B40D460188090502D5214CC6
:100830007C4402E01F4C7C440E34002100F124066D
:1008400008E002F00F071209E75D42EA03721B0994
:100850007754491C52EA0307F3D1027800231207A8
:1008600004D5702D06D009B1022311342246F0BC04
:1008700000F02BB901231034F8E770B504460D469B
:1008800021461068FFF751FE024629462046BDE882
:1008900070400023C6E7D21D22F00703D3E90023EE
:1008A000C0E70368126843F0200303600823C361B4
:1008B0000023B7E7084200002DE9F05F89460446AF
:1008C0004FF0000ADFF874B1FB44C0F820A02046C6
:1008D000E1688847002874D0252806D0D4E9012192
:1008E0009047206A401C2062F1E700265F462046C0
:1008F000E16888472028054607DB312D05D27819A5
:1009000010F8200C08B10643F1E7B00701D526F036
:100910000406C4F81CA00027C4F818A02A2D09D08A
:10092000284603F00DFE38B304EB8708303DC8F8C5
:10093000185019E059F8041B204604EB8702916116
:10094000E1688847012F054618D1E069002820DAC0
:1009500026F020061DE0D8F8180000EB800005EB1B
:1009600040003038C8F818002046E168884705463E
:1009700003F0E6FD0028EED1012F0AD02E2D08D17C
:100980002046E16888477F1C0546022F46F0200676
:10099000C4DBA069002803DA404246F00106A061EA
:1009A000F00701D026F010066C2D0BD0682D09D071
:1009B0004C2D39D06A2D35D0742D35D07A2D33D0C9
:1009C00016E038E0E1682F4620468847B8420546E1
:1009D00009D16C2F26D04FF48060E1680643204691
:1009E0008847054604E06C2F1AD04FF48070064308
:1009F0000DB3A5F14100192802D8203546F4006650
:100A00004A462946204626604E46FFF7F7FB80B14E
:100A100001280BD0F61D26F0070000F1080956E763
:100A20004020E4E78020D8E70020D6E706F104095B
:100A30004DE7284652E7206ABDE8F09F9841000044
:100A400030B5B0F10A024FEA900E71F100034EEAA0
:100A5000817EB0EB0E0061EB91014FEA101E4EEA71
:100A6000017E10EB0E0041EB11114FEA102E4EEA01
:100A7000016E10EB0E0041EB11214FEA104E4EEAD1
:100A8000014E10EB0E0041EB1141401841F1000105
:100A90004FEAD00040EA41704FEAD10110EB8005E7
:100AA0004FEA810444EA907444EB01046D1944EB6D
:100AB0000404521BA3414FF0000348BF0A3200D583
:100AC00030BD401C41F1000130BD2DE9F0470D461D
:100AD00099469246044600F124080168880604D528
:100AE000E06921F01001216000E00120A84201DD51
:100AF000471B00E00027A1697A1902EB0900081AD8
:100B0000A0612078C00602D42046FFF7DEFC002654
:100B100008E0D4E901211AF806009047206A401C39
:100B2000761C20624E45F4DB2078C0060AD52046AC
:100B3000FFF7CBFC06E0D4E9012130209047206A82
:100B4000401C2062381EA7F10107F4DC07E0D4E95D
:100B5000012118F805009047206A401C2062281ED9
:100B6000A5F10105F3DC2046FFF7C5FC207800065F
:100B700002D50220BDE8F0870120FBE770472DE990
:100B8000FF4F0C461E464FF0FF378BB0D2E90001F5
:100B9000DDF860800A908A46C1F30A5505B93D46E2
:100BA000002108464FF00000BAF1000F00F44000A9
:100BB00005DA00EB80004FF4400101EA50004FEAF3
:100BC0009059B9F1010F00DDB9460A9850EA4A0080
:100BD0000ED044F61050A5F2FF3545432F14B8F15E
:100BE000000F1ED07542291E1EDDC9F100021CE057
:100BF000B8F1010F4FF0000001D0302103E0F243C3
:100C000005E02154401CB042FBDB304600220021AD
:100C100021540B99C1F80880C1E900200FB0BDE84C
:100C2000F08FBD1B6D1CDEE74A4600DA694206A85C
:100C300000F0F4FB06AB93E8070003AB83E8070082
:100C400050460A9900F0ACFC8DE80700A0F5005072
:100C50001F3800900398002D0ADD42F21F014A461A
:100C60000844002303A90390684600F015FF09E03B
:100C7000A0F500504A461F38002303A90390684698
:100C800000F01FFF8DE807000004000C03D04FF0B8
:100C9000FF30410800E01046B8F1000F03D00022F9
:100CA000009215461EE0751E05D4FFF7C9FE3032CE
:100CB00062556D1EF9D5B3460122084302D00022C9
:100CC0007F1C04E02078302801D100227F1E002AFA
:100CD000099784D01DE0112D07DAFFF7B1FE3032FD
:100CE00062556D1C50EA0102F5D1084302D000980C
:100CF000C8B10EE00021681E05E0235C625C63540D
:100D00002254401E491C8142F7DBAB46A81B401E03
:100D10000990002004F80B000B98099AC0F808808D
:100D2000C0E9002B7AE711264FF0000857E72DE9BC
:100D3000F04F88460446D21D22F0070191B0D1E958
:100D40000001CDE90A0103F0D3FB02460B98C00F66
:100D500001D02D2007E02068810701D52B2002E07B
:100D6000202101EAC000032A099001D0072A05DBEF
:100D700003464146204600F011FB0BE12078800637
:100D800001D5E06900E00620B8F1650F814606D084
:100D9000B8F1660F18D0B8F1670F70D131E00020BC
:100DA000B9F1110F009001DB112301E009F10103FA
:100DB0000AAA01A90CA8FFF7E2FEDDE90C700026E3
:100DC00009F10105834647E001204B4600904FF0B2
:100DD00000470AAA01A90CA8FFF7D1FEDDE90DB072
:100DE0000C995D46002610B909F101000D18B9EB08
:100DF000050003D4C0F1FF3609F10105A5EB090098
:100E00002BE0B9F1010F01DA4FF001090020B9F12F
:100E1000110F0090484601DD112300E003460AAAA5
:100E200001A90CA8FFF7ABFEDDE90C704D460026CA
:100E30008346207800070AD4AB4500DA5D4601A856
:100E4000012D04DD411911F8011C302907D04F454F
:100E500002DA17F1040F04DA012082460FE06D1E5A
:100E6000EEE7002F02DCED1B3E4403E0781CA842B5
:100E700000DD7D1CB81B00F1010A4FF0004720780F
:100E8000000703D4AA4501DB4FF0FF3A0021B7F178
:100E9000004F0DF143088DF8431024D002202B237E
:100EA000002F01DA7F422D230A21021EA0F101004A
:100EB00000DC5FB197FBF1FC97FBF1F201FB1C7CBE
:100EC00017460CF1300C08F801CDEEE7A8F101004F
:100ED00003702188090501D5452100E06521A0F1B5
:100EE000010800F8011C09980FA9A1EB0807FF1DD4
:100EF00000B10120411901EBEA70A1693844081AD8
:100F0000401EA0612078C00602D42046FFF7DDFA1B
:100F1000099828B1D4E901219047206A401C206239
:100F20002078C00622D52046FFF7CFFA1EE0002E1B
:100F300004DBB34502DD01A8805D00E03020D4E988
:100F400001219047206A401C2062761CAAF1010012
:100F50005FEA000A0AD100F01DFAC0680168405C2F
:100F6000D4E901219047206A401C2062281EA5F187
:100F70000105DCDC07E0D4E9012118F8010B9047FA
:100F8000206A401C2062381EA7F10107F3DC2046CE
:100F9000FFF7B1FA032011B041E600002DE9F04F50
:100FA00004460D46D21D22F0070089B0D0E9009713
:100FB0004846394603F09CFA0246F80F01D02D232B
:100FC00007E02068810701D52B2302E0202101EAF8
:100FD000C0038DF820300BB1012000E00020032A6F
:100FE000824601D0072A04DB2946204600F0D6F9C4
:100FF0003FE12078800601D40D2500E0E569C7F3C4
:101000000A560D2D49DA00214FEA175B08464FF0CA
:101010000000002F00F4400007DA00EB80004FF4DE
:10102000400100EBD07001EA60008115012901DD6B
:101030004FF0FF3100224FEA850CBCF1180F06D3A8
:101040001346ACF118004FF08052C24003E04FF459
:10105000801323FA0CF30CF10C0CBCF1200F04D319
:10106000ACF1200C09FA0CF001E007FA0CF00029B1
:101070004FF0004801DD18B90FE00ED140450CD308
:1010800019EB02095F4121B9404502D19F4329EA8A
:101090000209BBEB175F00D0761C2088000502D543
:1010A0007B48784402E07A487844193808AA30230B
:1010B00002F80A30037C0AF10101002E0AF1020A4B
:1010C00053546A4602DC4FF0300101E04FF0310129
:1010D0004FF001088DF8001002D0A6F2FF3603E0B1
:1010E00059EA470100D06B4E002D02DC2178090738
:1010F00004D54FF002082E218DF80110C4460021BE
:101100000BE0C7F303433F01C35C491C6D1E02F8AB
:101110000830052908F1010801DA002DF1DC002171
:101120000CE000EB1973491C1B786D1E082902F8AE
:1011300008304FEA091908F1010801DA002DF0DC46
:1011400021688B0602D516E0A8F10108E04505DD0F
:1011500002EB080313F8013C302BF5D0B8F1000F77
:1011600009DD02EB080313F8013C2E2B03D109071C
:1011700001D4A8F10108002D05DD3E2102F8081078
:101180006D1E08F10108407C002E02F8080008F1ED
:10119000010804DA2D20764202F8080002E02B2034
:1011A00002F808000A214FF47A70864208F101081B
:1011B0000BDB96FBF0F3303302F8083096FBF0F3CC
:1011C00008F1010800FB136601E0642E0CDB6420CB
:1011D00096FBF0F3303302F8083096FBF0F308F199
:1011E000010800FB136601E00A2E06DB96FBF1F016
:1011F000303002F8080008F1010896FBF1F001FB1D
:101200001060303002F80800A16908F1010808EB0D
:10121000050202EB0A00081AA0612078C00602D479
:101220002046FFF752F9216A08AE01EB0A0020625E
:1012300004E0D4E9012116F8010B9047BAF1010A44
:10124000F7D22078C00602D52046FFF73EF96E4659
:1012500009E016F8010B3E280FD0D4E90121904790
:10126000206A401C2062B8F10108F2D22046FFF744
:1012700042F909B00320BDE8F08F206A28442062BB
:1012800003E0D4E90121302090476D1EEBD3F8E74D
:10129000E239000002FCFFFF10B5436913B1AFF360
:1012A000008001E0FFF74AF9012010BD127800F13B
:1012B00024010A7000224A700122EDE711684FF004
:1012C000FF32E9E710B5436913B1AFF3008001E0E5
:1012D000FFF7D4F9012010BD128800F124018284A7
:1012E0000022C2840122EDE711684FF0FF32E9E7E6
:1012F00070B516460C46054600F044F8036893F8AE
:101300000101012806D0FF2C0FD8185D68B101201B
:101310002C7070BDD3F807013246214603F2071343
:1013200003442846BDE8704018474FF0FF3070BDB9
:1013300000487047FC0100207546FFF7F9FFAE46F4
:1013400005006946534620F00700854618B020B5D1
:10135000FEF7CEFFBDE820404FF000064FF000073B
:101360004FF000084FF0000B21F00701AC46ACE84D
:10137000C009ACE8C009ACE8C009ACE8C0098D46BA
:101380007047000010B500F005F8001D10BD00BF4B
:101390004D360000004870471C0200202DE9F04146
:1013A0001F46044603260168072A01F4006004DB97
:1013B00008B116A505E016A503E008B115A500E0E3
:1013C00015A521F010002060A069C01EA0610FB11A
:1013D000401EA0612046FFF778F84FB1D4E9012103
:1013E00038469047206A401C2062C01C206206E0FC
:1013F000206AFAE7D4E9012115F8010B9047761E1F
:10140000F8D22046FFF777F8BDE8F0814E414E0054
:101410006E616E00494E4600696E66002DE9F04728
:10142000814616468AB0354878440DC88DE80D00CF
:1014300032487844801C03AC0DC884E80D0041F6A6
:101440009B300844372190FBF1F290FBF1F5A5F1B8
:10145000800501FB12041B3C02D56442012000E020
:101460000020DFF898A080460027FA44AAF1BE0ABF
:101470000EE0E0070AD03246684607EB4701012339
:101480000AEB810100F01DFB8DE8070064107F1C52
:10149000002CEED1194F7F44AE3F19E0E80715D07C
:1014A00007EB04100DF1180A90E80E008AE80E0010
:1014B000C068F04201D1981908903246012306A96C
:1014C00003A800F0FEFA03AB83E807006D10641C6C
:1014D000002DE3D14FF0010332466946B8F1000F09
:1014E00003A802D000F0D8FA01E000F0EAFAC9E956
:1014F0000001C9F808200AB0BDE8F087EC3600000A
:1015000010B50446AFF300802046BDE81040FEF75A
:10151000DABE70474FF0013C50F8042B51F8043B01
:101520009A4221D1A2EB0C03934313EACC1317D1B7
:1015300050F8042B51F8043B9A4215D1A2EB0C034E
:10154000934313EACC130BD150F8042B51F8043B0E
:101550009A4209D1A2EB0C03934313EACC13DBD0DC
:101560004FF00000704700BFD01A01BAB1FA81F104
:1015700001F0180122FA01F0CB40C1F12001DBB2E9
:10158000C0B2C01A2CFA01F3D11A914311EAC31167
:10159000E6D1704701491820ABBEFEE726000200E5
:1015A0005FEA400C08BF91F0000F4FEA8C234FEA2E
:1015B000C12243EA51514FEA1C5018BF00F5F040D8
:1015C0004FEA300018BF41F000415FEA6C5C00F068
:1015D0002980BCF1FF3F08BF40F080407047130CEA
:1015E00006BF12044FF0100C4FF0000C130E04BF96
:1015F00012020CF1080C130F04BF12010CF1040CC1
:10160000930F04BF92000CF1020CD30F04BF5200E1
:101610000CF1010C11464FF00002A0F11F00A0EBED
:101620000C00704711F0004F08BF704731F00041C7
:101630003FF4D5AF0B0C06BF09044FF0100C4FF070
:10164000000C0B0E04BF09020CF1080C0B0F04BFB9
:1016500009010CF1040C8B0F04BF89000CF1020C82
:10166000CB0F04BF49000CF1010CCCF12003A0EB1F
:101670000C0022FA03F302FA0CF241EA030100F132
:101680000100704720F07F4C80EA030023F07F4781
:10169000ACEB070303F57C5300F0004003F1FF03BC
:1016A0002DE980494FEA154B09B44FEA144325EA66
:1016B0000B4E24EA03480FF2042606EB13274908D1
:1016C0003E785FEA320203FB0667C7F5000707FBB7
:1016D00006F64FEA54374FEAD64606F1020607FBF4
:1016E000066CCCF1005C4FEA1C472CEA074C07FB68
:1016F00006F40CFB06F504EB15464FEA961634BFCC
:1017000000204FF000404FEAD13706FB07FC4FEABC
:101710001C4C0CFB0BF7D21B03FB0CF761EB070116
:101720000CFB0EF7B0EB074072EB17420CFB08F70F
:1017300034BFA2EB0742B2EB074261EB17414FEA1D
:101740000C444FEA910706FB07FC4FEA1C4C0CFBCC
:101750000BF7B0EBC74072EB573203FB0CF734BF0B
:10176000A2EBC742B2EBC74261EB57310CFB0EF75D
:10177000B0EBC70072EB57720CFB08F734BFA2EB5B
:10178000C702B2EBC70261EB5771039F4FEA816159
:1017900041EA921104EBCC044FEAD1374FEA82625E
:1017A00006FB07FC42EA90124FEA80604FEA1C4CAD
:1017B0000CFB0BF7D21B03FB0CF761EB07010CFBD7
:1017C0000EF7B0EB074072EB17420CFB08F734BF83
:1017D000A2EB0742B2EB074261EB17414FEA8C558F
:1017E0004FEA910704EB9C2406FB07FC4FEA1C4CD4
:1017F0000CFB0BF7B0EBC74072EB573203FB0CF757
:1018000034BFA2EBC742B2EBC74261EB57310CFBCE
:101810000EF7B0EBC70072EB57720CFB08F734BF42
:10182000A2EBC702B2EBC70261EB577115EB4C2577
:101830004FEA816141EA92114FEA82624FEAD13761
:1018400042EA901206FB07FC44F100044FEA806074
:101850004FEA1C4C0CFB0BF7D21B03FB0CF761EBA4
:1018600007010CFB0EF7B0EB074072EB17420CFBC5
:1018700008F734BFA2EB0742B2EB074261EB174116
:1018800015EB1C154FEA813141EA92414FEA823251
:1018900042EA90424FEA80304FEA0C7644F100046D
:1018A00048EA03434EEA0B484FF0000EB2EB080C37
:1018B00071EB030724BF624639464EEB0E0E4FF024
:1018C000000B0018524149414BEB0B0BB2EB080CDB
:1018D00071EB03077BF1000B24BF624639464EEBE8
:1018E0000E0E4FF0000B0018524149414BEB0B0B11
:1018F000B2EB080C71EB03077BF1000B24BF6246CF
:1019000039464EEB0E0E51EA020718BF46F00106AB
:1019100016EB0E7655F1000254F1000103D5BDE837
:101920008901BDE80088BDE88901BDE80048B61915
:10193000524141EB0101A3F10103704780807F7E9A
:101940007D7C7B7A79787776767574737271717035
:101950006F6E6E6D6C6C6B6A6A69686867666665E7
:101960006464636362616160605F5F5E5E5D5D5C75
:101970005C5B5B5A5A5959585857575656555555E6
:101980005454535352525251515050504F4F4F4E46
:101990004E4D4D4D4C4C4C4B4B4B4A4A4A49494994
:1019A00048484847474747464646454545444444D6
:1019B000444343434342424242414141002B9C46FF
:1019C00030D477002BD01CB54FEA370703B44FF063
:1019D00010004FF01001BAF1000F06D0BCF1000F5B
:1019E000DCBF40F0080040F008014FF000000FBCE1
:1019F000BDE810400BF1010BBBF1010F08BF5FEA1E
:101A0000170722BF12F1010211F101014FF000414D
:101A100043F1000300F0004043EA00007047F9D3AF
:101A20005708D0E746EA064613F1400F4FEA16463C
:101A30001FDD13F1200FDFBF16430A4600212033BC
:101A40005B42BED0C3F1200746EA064602FA07F71A
:101A50004FEA164646EA0706C3F1200722FA03F2C8
:101A600001FA07F721FA03F14FF0000342EA0702F7
:101A7000A7E746EA020646EA06464FEA164646EA5F
:101A80000106BCBF46EA0646360C4FF000034FF095
:101A900000024FF0000194E72DE9804C9A469346EE
:101AA00070B491E8380007C831EA400C48BF34EA06
:101AB000430C03D5FFF7E6FDFFF780FFF0BCBDE860
:101AC000008C2DE9804C9A46934670B491E838001A
:101AD00007C810F0804F08BF13F0804F03D100F00B
:101AE00005F8FFF76BFFF0BCBDE8008C20F07F47E6
:101AF00080EA030023F07F4C07EB0C03A3F57C5333
:101B000000F00040A3F1FE0392F0000F00F0B3805C
:101B100095F0000F00F077802DE901494FEA114060
:101B20004FEA144621EA004800FB06FC24EA064777
:101B300008FB06F607FB08F800FB07F718EB06485A
:101B40004CEB164C4FEA124B18EB07484FEA154680
:101B50004CEB174022EA0B4E0BFB06FC25EA06472E
:101B60000EFB06F607FB0EFE0BFB07F71EEB064E01
:101B70004CEB164C4FF000061EEB074E4CEB174B90
:101B800018EB0B0840F1000018EB0E0B58EB0008A7
:101B900040F100008F1A4FF000013CBFC943661BA3
:101BA00014BFB5EB040C00213CBFC943F61B4FEA40
:101BB00017444EEA8E0E27EA04454FEA1C4704FB01
:101BC00007622CEA074C05FB07F70CFB05F604FB44
:101BD0000CFC16EB074642EB174216EB0C4642EBA9
:101BE0001C421BEB060658EB0202414146EA9E06E8
:101BF00001D5BDE80189B619524141EB0101A3F1BC
:101C00000103BDE801894FEA14454FEA114724EA70
:101C1000054621EA074C05FB07F406FB07F70CFB1A
:101C200006F105FB0CFC11EB074144EB17444FEAAE
:101C3000124711EB0C4144EB1C4422EA074C05FB14
:101C400007F206FB07F70CFB06F605FB0CFC16EB90
:101C5000074642EB174216EB0C4642EB1C456A184E
:101C600054F1000148BF7047B619524141EB0101E0
:101C7000A3F10103704795F0000F37D04FEA1142EE
:101C80004FEA144721EA024624EA074C02FB07F117
:101C900006FB07F70CFB06F402FB0CFC14EB0744F5
:101CA00041EB17414FEA154714EB0C4441EB1C4143
:101CB00025EA074C02FB07F506FB07F70CFB06F6C7
:101CC00002FB0CFC16EB074645EB174516EB0C46E2
:101CD00045EB1C42121951F1000148BF7047B6197B
:101CE000524141EB0101A3F1010370474FEA144552
:101CF0004FEA114724EA054621EA074C05FB07F1A4
:101D000006FB07F70CFB06F24FF0000605FB0CFC88
:101D100012EB074241EB174112EB0C4251EB1C4115
:101D200048BF7047921841EB0101A3F101037047CE
:101D3000464910B54A6822F440324A604A6843680E
:101D40001A434A6001684A6822F480724A60016856
:101D50004A68036942EA03224A6001684A6822F03D
:101D600040724A6001684A6883681A434A600168A1
:101D70008A6822F400628A6001688A68C3681A432C
:101D80008A60816A6FF07062D14201688A6822F0CD
:101D900070628A6001688A680CD0836A1A438A601C
:101DA00001688A6822F040528A6001688A68C36AC2
:101DB0001A4301E022F040528A6001688A6822F0EA
:101DC00002028A6001688A68037E42EA43028A60EE
:101DD00090F82010002901684A680FD042F4006290
:101DE0004A6001684A6822F460424A6001684A68B1
:101DF000174C436A04EB43331A4301E022F40062B8
:101E00004A600168CA6A22F47002CA620168CA6A3A
:101E1000838B104C04EB03531A43CA6201688A682F
:101E200022F400728A6001688A6890F8303042EAD1
:101E300043228A6001688A6822F480628A600168AD
:101E40008A68406942EA8020886010BD0023014012
:101E500000E0FFFF0000F0FFFEE7704772B6FEE70C
:101E600078B50024009490F83C20012A19D0012272
:101E700080F83C200A6807230568092A13D9EE6810
:101E80000A3A02EB420293409E43EE600B788A6866
:101E90000A3B03EB43039A400368DD682A43DA6098
:101EA00010E0022078BD2E6902EB420293409E436F
:101EB0002E610B788A6803EB43039A4003681D691F
:101EC0002A431A614A681F23072A13D205686E6BDA
:101ED000521E02EB820293409E436E630B790A8886
:101EE0005B1E92B203EB83039A4003685D6B2A4347
:101EF0005A6327E005680D2A12D22E6BD21F02EB1F
:101F0000820293409E432E630B790A88DB1F92B2B4
:101F100003EB83039A4003681D6B2A431A6311E0A5
:101F2000EE6A0D3A02EB820293409E43EE620B7919
:101F30000A880D3B92B203EB83039A400368DD6A83
:101F40002A43DA62164B0568144A9D4206D10D6891
:101F5000122D03D1556845F48005556005689D42F2
:101F600018D10B68102B01D0112B13D1536843F4F7
:101F700000035360096810290CD10A490A4A09680C
:101F8000B1FBF2F101EB8101490000E0491E009133
:101F90000029FBD180F83C40002078BD002301409F
:101FA000002001401000002040420F0070B50400E6
:101FB0004FF0000503D0206C002610B107E001208F
:101FC00070BD204600F01CF8666484F83C60206C0C
:101FD000C00610D4206C20F4885040F00200206429
:101FE0002046FFF7A5FE6664206C20F0020040F05A
:101FF0000100206400E0012584F83C60284670BDA3
:1020000010B586B0044614216846FEF734FA11492B
:10201000206888421CD110480021026842F4807276
:102020000260006800F4807005900B481438026864
:1020300042F001020260006800F0010005901020EB
:1020400000900320CDE901016946044800F066F8DC
:1020500006B010BD0020014044380240000002409C
:102060002DE9F0410446876D00F062F9064694F8C8
:1020700035000025022806D08020606584F83450A1
:102080000120BDE8F0812068016821F0160101609F
:102090002068416921F080014161206C08B9A06C81
:1020A00020B12068016821F0080101602068016802
:1020B00021F0010101600CE000F03AF9801B0528D5
:1020C00007D920206065032084F8350084F8345057
:1020D000D7E720680068C007EED194F85C103F2075
:1020E0008840B860012084F8350084F8345000201E
:1020F000C7E790F83510022903D0802141650120FF
:102100007047052180F835100068016821F0010151
:1021100001600020704780B202F068BA2DE9F84FE4
:10212000DFF8BCA10022012503264FF00F090AF1B8
:10213000040BAAF1040E00BF0B6805FA02F4234059
:10214000A34270D10F7907F00307012F01D0022FAE
:1021500016D187684FEA420806FA08FC27EA0C07FE
:10216000D1F80CC00CFA08FC4CEA070CC0F808C007
:102170004768A7430C79C4F3001494403C4344607F
:102180000C79E443A4070AD0C4684FEA420C06FA6B
:102190000CF7BC438F6807FA0CF72743C7600C792C
:1021A00004F00304022C12D1D40800EB840CDCF8F8
:1021B00020405707FF0E09FA07F824EA0804D1F86F
:1021C000108008FA07F848EA0408CCF82080046870
:1021D0004FEA420C06FA0CF7BC430F7907F00307ED
:1021E00007FA0CF7274307604C6814F4403F70D09F
:1021F0003C4C276847F480472760246822F0030797
:1022000004F480440094384C07EB040CDCF80848D4
:1022100097074FEA177809FA08F7BC43334FB842DB
:1022200002D1002724E054E0314FB84201D1012708
:102230001EE0304FB84201D1022719E02E4FB842BC
:1022400001D1032714E02D4FB84201D104270FE03C
:102250002B4FB84201D105270AE02A4FB84201D1DD
:10226000062705E0284FB84201D1072700E00827DC
:1022700007FA08F72743CCF80878DAF80040574601
:10228000D1F804C09C435FEACC2C00D51C433C60D1
:10229000DBF800405F46D1F804C09C435FEA8C2C19
:1022A00000D51C433C60DEF800407746D1F804C0FE
:1022B0009C435FEA8C3C00D51C433C60084F083FC0
:1022C0003C68D1F804C09C435FEACC3C00D51C4379
:1022D0003C60521C102AFFF42FAFBDE8F88F0000BD
:1022E000083C0140443802400030014000000240F8
:1022F0000004024000080240000C024000100240AE
:102300000014024000180240001C0240006908400E
:1023100000D001207047426921EA02030A4043EAE3
:102320000241816170470AB1816170470904FBE78E
:10233000014880687047000004000020024881685E
:102340000278114481607047040000200B4810B5EA
:10235000016841F400710160016841F4806101602D
:10236000016841F480710160032000F07FF80F20C4
:1023700000F006F800F024F8002010BD003C0240F8
:1023800070B50D4D04464FF47A712878B1FBF0F02A
:102390000A490968B1FBF0F000F01CFB48B9102CA9
:1023A00007D200222146501E00F040F800206C6049
:1023B00070BD012070BD000004000020100000204E
:1023C0000A4808B5016841F480410160006800F4E2
:1023D000804000900548001F016841F08051016075
:1023E000006800F08050009008BD000044380240B2
:1023F00000280DDB00F01F02012191404009800000
:1024000000F1E020C0F88011BFF34F8FBFF36F8F52
:102410007047002809DB00F01F02012191404009AC
:10242000800000F1E020C0F800117047F0B40E4BBE
:102430001B680C46C3F30223C3F10705042D00D922
:102440000425191D072901D2002300E0DB1E012607
:1024500006FA05F1491E214099409E40761E16401D
:102460003143F0BC02F05CB80CED00E0064900F02E
:10247000070208684FF6FF03184040EA0220034AAB
:1024800010430860704700000CED00E00000FA0502
:102490002DE9F0470E46050065D0DFF81481D8F825
:1024A0000000F7B200F00700B04207D288F80070D1
:1024B000D8F8000000F00700B04254D128683D4C25
:1024C000810712D5400703D5206840F4E050206012
:1024D0002878000703D5206840F460402060206819
:1024E000A96820F0F000084320602878C0072DD0AC
:1024F000304968680839012812D0022813D003280F
:1025000011D00968890700292DDA216821F003011B
:1025100001432160FFF70CFF814641F2883A0EE04B
:1025200009688903EFE709688901ECE7FFF700FF15
:10253000A0EB0901514502D90320BDE8F0872068CE
:10254000696800F00C00B0EB810FEFD1D8F80010F3
:10255000404601F00701B14207D90770006800F05A
:102560000700B04201D00120E7E72878400705D5F1
:102570002068E96820F4E0500843206028780007CC
:1025800006D52068296920F4604040EAC100206037
:1025900000F038F82168084AC1F30311515CC840C3
:1025A0000649086006480068FFF7EAFE0020C4E715
:1025B000003C0240083802401A4A0008100000207F
:1025C000080000200448054900680968044AC1F36E
:1025D0008221515CC840704710000020083802403A
:1025E0002A4A00080448054900680968044AC1F3FA
:1025F0004231515CC840704710000020083802404A
:102600002A4A0008154810B5006810F00C0214485A
:1026100013D01449042A0FD0082A0ED10F4C241FBE
:102620002268236802F03F025B0207D52068C0F3EE
:102630008810A0FB010106E0084610BD2168C1F327
:102640008811A1FB00010023FDF764FE2168C1F39E
:102650000141491C4900B0FBF1F010BD08380240AF
:102660000024F40040787D012DE9F84F04006ED07D
:102670002078DFF84C93C007A9F104054AD009F18E
:1026800004000168C1F38101012908D00068C0F38A
:10269000810002280AD1D9F80000400206D5286836
:1026A000800337D560680028E1D033E06068B0F57A
:1026B000803F10D0B0F5A02F286810D020F48030D3
:1026C0002860286820F4802028606068A8B1FFF79F
:1026D0002FFE06460DE0286840F48030F4E740F411
:1026E00080202860F7E700BFFFF722FE801B6428E8
:1026F00073D828688003F7D50CE0FFF719FE06466B
:1027000005E000BFFFF714FE801B6428F0D828689E
:102710008003F7D42078DFF8AC8280074FF0000AFE
:102720003ED5A748001D016811F00C0F08D00068C5
:10273000C0F3810002280BD1D9F80000400207D471
:102740002868800716D5E068012800D112E033E13F
:10275000E068B8B10120C8F80000FFF7E9FD0646BF
:1027600005E000BFFFF7E4FD801B0228C0D8286801
:102770008007F7D52868216920F0F80040EAC100F9
:1027800028600DE0C8F800A0FFF7D2FD064604E07F
:10279000FFF7CEFD801B02281FD828688007F7D4DA
:1027A0002078000722D5864F87486169703771B15C
:1027B00001210160FFF7BCFD064604E0FFF7B8FD0C
:1027C000801B022809D838688007F7D50EE0C0F8CA
:1027D00000A0FFF7ADFD064605E082E0FFF7A8FD8B
:1027E000801B02287DD838688007F7D420784007FE
:1027F00068D5DFF8CCB100270BF13C0BDBF800000B
:10280000C0000BD4DBF8001041F08051CBF8001071
:10281000DBF80000012700F0805000906B4E30681C
:10282000C00510D4306840F480703060FFF780FD40
:10283000009005E0FFF77CFD0099401A022850D86F
:102840003068C005F6D55E4EA0686C3601280FD002
:102850000528306810D020F001003060306820F08A
:1028600004003060A068B8B1FFF762FD00900FE08F
:10287000306840F00100F4E740F004003060F7E712
:10288000FFF756FD0099411A41F28830814266D81F
:1028900030688007F4D50EE0FFF74AFD009007E0AE
:1028A000FFF746FD0099411A41F28830814256D81F
:1028B00030688007F4D42FB1DBF8001021F080518C
:1028C000CBF80010A069C8B33D49091D0968C1F3E0
:1028D000810102294AD00228504607D0C8F860007A
:1028E00000E03CE0FFF724FD04463BE04746C8F823
:1028F0006000FFF71DFD064605E000BFFFF718FD6D
:10290000801B02282BD828688001F7D4D4E907015E
:102910000843A16A2E4A490802EB0141626A41EA72
:102920008211084394F82C1040EA0161C9F80010A4
:1029300001203866FFF7FCFC044606E03EE000BFDD
:10294000FFF7F6FC001B022809D828688001F7D59C
:1029500034E000BFFFF7ECFC001B022802D9032083
:10296000BDE8F88F28688001F4D427E00128F7D06B
:10297000D9F80000E26900F4800191421CD1226A7A
:1029800000F03F01914217D147F6C071626A0140E1
:10299000B1EB821F10D1A26A4FF0FF3300F4403137
:1029A00003EB5202B1EB024F06D194F82C1000F069
:1029B0007060B0EB016F01D00120D1E70020CFE7BC
:1029C0000438024000004742800E47420070004039
:1029D0000000FFFF10B5401EB0F1807F01D3012041
:1029E00010BD4FF0E02460610F21601701F098FDE9
:1029F0000020A06107202061002010BD70477047B3
:102A000070B590F83C20012A32D0012480F83C4077
:102A1000022280F83D2003685A689D6822F0700603
:102A20000A6832435A60134B02689A4214D0B2F1DA
:102A3000804F11D0104B9A420ED0104B9A420BD0BF
:102A40000F4B9A4208D00F4B9A4205D00E4B9A4238
:102A500002D00E4B9A4204D1496825F080031943F5
:102A6000916080F83D40002180F83C10084670BD20
:102A7000022070BD0000014000040040000800403A
:102A8000000C0040000401400040014000180040DC
:102A900010B5040003D094F83D0010B107E0012008
:102AA00010BD002084F83C00204600F01FF80220F2
:102AB00084F83D00211D206801F01CF9012084F8F4
:102AC000460084F83E0084F83F0084F8400084F813
:102AD000410084F8420084F8430084F8440084F8FC
:102AE000450084F83D00002010BD000008B50168D5
:102AF0001648B1F1804F0BD0154A914210D10168B0
:102B000041F002010160006800F00200009008BD81
:102B1000016841F001010160006800F00100F5E783
:102B20000C4A9142F3D1016841F010010160006844
:102B3000002200F01000009011463620FFF776FCCE
:102B4000BDE808403620FFF764BC00004038024072
:102B5000000400400010004090F83D10012901D011
:102B600001207047022180F83D100168CA6842F0D8
:102B70000102CA6000681149884214D0B0F1804F48
:102B800011D00F4988420ED00E4988420BD00E4911
:102B9000884208D00D49884205D00D49884202D0AC
:102BA0000C49884204D1816801F00701062903D04D
:102BB000016841F001010160002070470000014000
:102BC0000004004000080040000C004000040140E8
:102BD000004001400018004070B5044690F83C00E9
:102BE0000025012817D0012684F83C60022084F8D3
:102BF0003D002068826822F0770222F47F428260E2
:102C00000868502838D00DDC20284FD005DC90B360
:102C1000102811D14AE0022070BD302846D040284B
:102C20000AD13BE060282FD070280DD0B0F5805F2E
:102C300003D0B0F5005F12D0012584F83D6000207C
:102C400084F83C00284670BDCB68D1E9012120689A
:102C500001F0C5F82068816841F0770109E0CB6890
:102C6000D1E90121206801F0BAF82068816841F4B7
:102C700080418160E1E719E0CA684968206801F095
:102C800083F95021206806E0CA684968206801F08D
:102C90008CF96021206801F0ACF8CEE7CA68496879
:102CA000206801F071F940212068F4E722680146AC
:102CB0001046F0E770472DE9F04104460068C66809
:102CC00005694FF00007A90713D5B10711D5F91E03
:102CD000016101202077206880698007204602D0AA
:102CE000FFF7E8FF04E000F0D1F8204600F063F9B8
:102CF0002777680716D5700714D521686FF0040090
:102D00000861022020772068806910F4407F204607
:102D100002D0FFF7CFFF04E000F0B8F8204600F043
:102D20004AF92777280715D5300713D521686FF0A2
:102D300008000861042020772068C06980072046C9
:102D400002D0FFF7B7FF04E000F0A0F8204600F043
:102D500032F92777E80616D5F00614D521686FF00A
:102D600010000861082020772068C06910F4407FB7
:102D7000204602D0FFF79EFF04E000F087F82046CF
:102D800000F019F92777E80708D0F00706D0216886
:102D90006FF001000861204600F072F9280608D59E
:102DA000300606D521686FF0800008612046FFF7E5
:102DB00025FE680608D5700606D521686FF040002C
:102DC0000861204600F05AFAA8060AD5B00608D5D0
:102DD00021686FF0200008612046BDE8F041FFF750
:102DE0000EBEBDE8F081000030B587B00446142166
:102DF0006846FDF740FB2268002420490225204850
:102E0000B2F1804F28D01F4B9A4223D10A6842F07A
:102E100001020A600A6802F0010205920A6842F0A3
:102E200002020A60096801F0020105918021009107
:102E3000CDE901546946CDE90345FFF76FF9032059
:102E40000090CDE9015410486946CDE9034500BF23
:102E5000FFF764F907B030BD0A6842F001020A606A
:102E6000096801F0010105910E210091CDE901549D
:102E70000121CDE903416946EAE70000303802400C
:102E8000000002400004004000040240704770B59A
:102E9000044690F83C0000260D4601280FD0012082
:102EA00084F83C006AB1042A1DD0082A2FD00C2ACD
:102EB0003FD00126002084F83C00304670BD02203F
:102EC00070BD206800F09EFF2068816941F0080114
:102ED00081612068816921F0040181612068816934
:102EE0002A69114311E0206800F0BCFF2068816965
:102EF00041F4006181612068816921F48061816110
:102F0000206881692A6941EA02218161D2E720684B
:102F100000F0DEFF2068C16941F00801C16120684E
:102F2000C16921F00401C1612068C1692A691143A6
:102F300011E0206801F000F82068C16941F40061E7
:102F4000C1612068C16921F48061C1612068C169E3
:102F50002A6941EA0221C161ACE710B5040003D03F
:102F600094F83D0010B107E0012010BD002084F866
:102F70003C00204600F01EF8022084F83D00211D90
:102F8000206800F0B7FE012084F8460084F83E0077
:102F900084F83F0084F8400084F8410084F842003F
:102FA00084F8430084F8440084F8450084F83D0028
:102FB000002010BD7047704710B50446022249B189
:102FC00004290ED0082913D094F84100012816D006
:102FD000012010BD94F83E000128F9D184F83E206C
:102FE0000FE094F83F000128F2D184F83F2008E078
:102FF00094F840000128EBD184F8402001E084F8E7
:1030000041200122206800F0DDFE16492068164AA2
:10301000884201D0904203D1436C43F4004343649F
:103020002068884213D0B0F1804F10D00F498842F9
:103030000DD00F4988420AD00E49884207D09042ED
:1030400005D00D49884202D00C49884204D18168DC
:1030500001F00701062903D0016841F00101016078
:10306000002010BD000001400004014000040040A9
:1030700000080040000C00400040014000180040E3
:1030800070B500687249884274D100F0B1FB714C90
:1030900001260025608A401C80B260820A2802D383
:1030A0006D4865820670A08A401C80B2A0826428A8
:1030B00000D3A582608801280CD1E088401C80B232
:1030C000E080A188884205D36580207A40F2DC51F7
:1030D00000F052FD61480078022823D1604991F93F
:1030E000002040F22970002A01DD208206E091F9DB
:1030F0000010002904DA4FF46C712182667002E03E
:10310000E18921826570574991F90020002A02DD8A
:10311000A081267006E091F90000002802DA4FF441
:10312000FA70F5E7E08A401C80B2E082142837D3B9
:10313000E5822078A0B36089A189884202D960899C
:10314000A18901E0A0896189401A80B20A2803D8C8
:10315000A0896081257018E06089A18988420AD21F
:10316000A0896189401A80B2052800D905206189AB
:10317000084409E064E06089A189401A80B205280A
:1031800000D905206189081A608160890521801CA9
:10319000B0FBF1F0344900EB800080B2096888632D
:1031A000208B401C80B22083142849D3258360786B
:1031B0002E4A9FED2F0ADFED2F0A2F49E8B3E08951
:1031C000238A984202D9E089238A01E0208AE38990
:1031D000C01A80B2062803D8208AE081657017E003
:1031E000E089238A984209D2208AE389C01A80B2F2
:1031F000042800D90420E389184408E0E089238AE0
:10320000C01A80B2042800D90420E389181AE0818A
:10321000E0890223401CB0FBF3F012684004000C6C
:10322000C2F83C00A0F5FA7001EE100AB8EE411A9F
:1032300021EE000A80EE201A00E002E081ED001A83
:1032400070BD1068C06B80B2E0812082EAE70000A8
:103250000010004018000020000000203600002070
:103260003800002039000020DC00002094000020FD
:10327000000087430000FA44440000207047704774
:1032800070470000F8B5016804460868CA684B69D1
:1032900010F00F0F4FF0000559D003F0010602F4B3
:1032A0009077374365D0C10705D0D10503D5616C50
:1032B00041F001016164410705D5D90703D0616C74
:1032C00041F002016164810705D5D90703D0616C23
:1032D00041F004016164010707D502F02001314388
:1032E00003D0616C41F008016164616C00293AD03F
:1032F000800604D5900602D5204600F0AFFE206877
:103300004069616CC0F38010090700D460B32046A7
:1033100000F07DFE20684069400621D52068143009
:1033200050E8001F21F0400140E80012002AF5D1CA
:10333000E06BA8B172490165E06BFEF7DAFE002888
:1033400011D0E06B016D01B0BDE8F0400847830685
:103350000FD593060DD52046BDE8F84000F07EBE9F
:103360002046FFF78DFFF8BD2046FFF789FF656413
:10337000F8BD266B2023012E7ED1C6067CD5D6064D
:103380007AD508684868009048694FF00206400600
:103390004DD5E26B106840684FF480770004000C54
:1033A0003AD0A18D814237D9E085D069B8422DD07D
:1033B00020680C3050E8001F21F4807140E80012B2
:1033C000002AF5D12068143050E8001F21F00101D7
:1033D00040E80012002AF5D12068143050E8001FA0
:1033E00021F0400140E80012002AF5D184F8423073
:1033F000256320680C3050E8001F21F0100140E8E0
:103400000012002AF5D1E06BFEF72AFE6663A08D5C
:10341000E18D401A81B206E0A18D8142A8D1D06928
:10342000B842A5D166632046FFF729FFF8BDA08DFD
:10343000E18D401A81B2E08D0028F7D00029F5D047
:1034400020680C3050E8002F22F4907240E80027EA
:10345000002FF5D12068143050E8002F22F001022F
:1034600040E80027002FF5D184F84230256320681A
:103470000C3050E8002F00E006E022F0100240E897
:103480000023002BF3D1CDE705062BD5150629D552
:1034900094F841002128C9D1A068B0F5805F01D11E
:1034A0002069B0B1206A411C21622168007848601F
:1034B000E08C401E0004000CE084B7D12068C16895
:1034C00021F08001C1602068C16841F04001C16005
:1034D000F8BD206A0088C0F308004860206A801C9C
:1034E0002062E5E74006F3D55006F1D5CA682046CC
:1034F00022F04002CA6084F8413000F025F9F8BD9E
:103500000140000870B5040004D094F84100002583
:1035100010B106E0012070BD84F84050204600F054
:1035200023F8242084F841002068C16821F4005168
:10353000C160204600F0F4FD2068016921F490414B
:1035400001612068416921F02A0141612068C16858
:1035500041F40051C1606564202084F8410084F882
:1035600042006563002070BD70B586B0044614212A
:103570006846FCF780FF2A4E226800212948022372
:1035800003240725B24222D1264A1432166846F097
:1035900010061660126802F010020592026842F0EE
:1035A00001020260006802AA00F00100059082E8B2
:1035B00032006002CDE9000369461B48FEF7AEFD0C
:1035C000002211462520FEF731FF252024E0174E6A
:1035D000B24223D1134A1032166846F40036166000
:1035E000126802F400320592026842F0080202609A
:1035F000006802AA00F00800059082E8320060200E
:10360000CDE9000369460A48FEF788FD002211460D
:103610002620FEF70BFF2620FEF7FBFE06B070BD4E
:1036200000100140303802400000024000440040D9
:10363000000C024090F84230202B01D0022070474D
:1036400021B11AB10023036300F0F0BD01207047DF
:1036500010B500680F4A1049904208D1084600781A
:10366000487000F045FE01220B490C480CE00C4A62
:1036700090420DD10848801C0078C87001F050F9C4
:10368000054901220748891CBDE81040FFF7D2BF59
:1036900010BD000000100140320000206C0100202D
:1036A00000440040B40100202DE9F843044690F89E
:1036B0004100984616460D46202802D00220BDE85B
:1036C000F88385B17EB100206064212084F8410038
:1036D000FEF72EFEA6848146E684A0682027B0F57A
:1036E000805F02D003E00120E9E7206910B12E4697
:1036F00000250EE000260CE08021204600F0B1FD00
:10370000A8B9C6B116F8010B21684860E08C401ECC
:10371000E084E08C4B464FF00002CDF8008000289A
:10372000EAD14FF04001204600F09BFD40B184F803
:1037300041700320C3E735F8020BC0F30800E3E74C
:1037400084F841700020BAE77047FEE710B53620D4
:10375000FEF74EFE0548008805490880054900200F
:103760000870BDE810403620FEF753BE220000204E
:10377000240000201800002010B53620FEF738FE87
:103780000548008805490880054900200870BDE803
:1037900010403620FEF73DBE260000202800002005
:1037A000190000200349C878002801D00022CA70FF
:1037B000704700004800002010B50C4C4021204606
:1037C000FEF7A4FD58B180212046FEF79FFD40B1D1
:1037D000A1152046FEF79AFD28B1002010BD01205A
:1037E00010BD022010BD032010BD000000140240D7
:1037F00010B50A4C2078401CC0B2207014280CD39D
:10380000002020706078A070FFF7D6FF607000285D
:1038100003D1A078002800D0E07010BD480000203F
:103820007FB5002415480094019402941249039432
:1038300001604FF48031C0E901140461047680F81E
:1038400020400F49C0E90A140125C561C46080F811
:1038500030404561FEF7AAFB08B1FEF7FFFA0420ED
:10386000CDE90005694602940448FEF7F9FA0028FC
:1038700001D0FEF7F3FA7FBD002001404C0000208C
:103880000100000F2DE9F04186B014216846FCF7D5
:10389000F2FD2B480024016841F02001016001681D
:1038A00001F020010591016841F08001016001688B
:1038B00001F080010591016841F00101016001689A
:1038C00001F001010591016841F002010160016808
:1038D00001F002010591016841F0080101600068F2
:1038E000184F00F008000590002238213846FEF7F6
:1038F0001AFDDFF8548041F2F006002231464046BE
:10390000FEF711FD382000900125CDE901546946EC
:1039100038460394FEF702FC4FF4E0708DE8310066
:1039200069463846FEF7FAFB0096CDE90154694630
:1039300040460394FEF7F2FB06B0BDE8F0810000BC
:1039400030380240001402400004024010B58EB02E
:1039500000240794089409940A940B941C21684647
:103960000C94FCF788FD26484FF0804101605321FC
:10397000C0E9011444F61F61C0E903148461FFF734
:1039800087F808B1FEF76AFA4FF48050079007A94C
:103990001B48FFF721F908B1FEF760FA1848FFF756
:1039A000DCFA08B1FEF75AFA0B940BA914480C94F0
:1039B000FFF726F808B1FEF751FA6020CDE90004C0
:1039C0000294042269460E480494FFF760FA08B195
:1039D000FEF744FA082269460948FFF758FA08B189
:1039E000FEF73CFA0C2269460548FFF750FA08B189
:1039F000FEF734FA0248FFF7F7F90EB010BD0000E9
:103A00009400002010B58EB0002407940894099407
:103A10000A940B941C2168460C94FCF72CFD264854
:103A2000244901605321C0E9011444F61F61C0E933
:103A300003148461FFF72CF808B1FEF70FFA4FF476
:103A40008050079007A91C48FFF7C6F808B1FEF799
:103A500005FA1948FFF781FA08B1FEF7FFF90B9450
:103A60000BA915480C94FEF7CBFF08B1FEF7F6F949
:103A70006020CDE900040294042269460E480494B3
:103A8000FFF705FA08B1FEF7E9F9082269460A4886
:103A9000FFF7FDF908B1FEF7E1F90C226946064887
:103AA000FFF7F5F908B1FEF7D9F90348FFF79CF9DC
:103AB0000EB010BD00040040DC0000201CB5002446
:103AC0000E4800940C4901940160A721C0E901143B
:103AD00040F2E7318461C160FEF7DAFF08B1FEF71A
:103AE000BDF90094694605480194FEF789FF002856
:103AF00001D0FEF7B3F91CBD0010004024010020E6
:103B00000C4810B50A4901604FF4E13141600021D1
:103B100081600C22C160C0E904128161C161FFF7BC
:103B2000F1FC002803D0BDE81040FEF797B910BDA6
:103B3000001001406C0100200C4810B50A490160DA
:103B40004FF416514160002181600C22C160C0E930
:103B500004128161C161FFF7D5FC002803D0BDE8E4
:103B60001040FEF77BB910BD00440040B4010020B6
:103B7000FEE7FEE770477047064A0228126805D044
:103B8000032805D0042800D1116470479163704761
:103B9000D16370479400002010B53620FEF728FC52
:103BA0000649002008800649088006490880064921
:103BB0000880BDE810403620FEF72BBC1A0000201C
:103BC0001C0000201E0000202000002070B5B5EE73
:103BD000C00A0E46F1EE10FA054640F2DC5101D95A
:103BE0008E4203D1BDE87040FFF7C6BFDFED0F0A7C
:103BF00080EE201ABCEEC10A10EE100A0404240C58
:103C000000D101243620FEF7F3FB0948094904805E
:103C100000200880084809490580012008803620D6
:103C2000FEF7F7FB31462846DCE700008FC2753D02
:103C30001C0000201E000020200000201A00002090
:103C4000FEF77CBB30B593B030216846FCF713FC1F
:103C500014210CA8FCF70FFC1D480025016841F059
:103C600080510160006800F080501190194801688F
:103C700041F4804101600068022400F4804011900A
:103C80000120039010200490009406940820CDE9B0
:103C90000750A820CDE9090404200B906846FEF7E0
:103CA000E3FC08B172B6FEE70CA90F2081E83100F1
:103CB0004FF4A0500F904FF48050109005210CA8A5
:103CC000FEF7E6FB002801D072B6FEE713B030BD68
:103CD00040380240007000400248016841F4700121
:103CE0000160704788ED00E00148FEF7E4BF000086
:103CF00024010020F0B50268274B284D284E294F9B
:103D0000294C4FF0804C984209D0604507D0A8421A
:103D100005D0B04203D0B84201D0A04204D122F075
:103D2000700E4A6842EA0E0298421BD0604519D0D4
:103D3000A84217D0B04215D0B84213D0A04211D03B
:103D40001A4DA8420ED01A4DA8420BD0194DA842C8
:103D500008D0194DA84205D0184DA84202D0184DE0
:103D6000A84203D122F44075CA682A434D6922F063
:103D700080022A438D68C5620D688562984201D031
:103D8000A04201D109690163016841F004010160A9
:103D9000012141610260F0BD0000014000040040CB
:103DA00000080040000C00400004014000400140B9
:103DB000004401400048014000180040001C004041
:103DC0000020004010B501F01F030121046A994052
:103DD0008C430462016A9A401143016210BD10B520
:103DE000846842EA032224F47F440A432243826027
:103DF00010BD826822F070020A4342F00701816020
:103E000070470000F0B5036A026A22F00102026204
:103E100042688469124E24F073050C682C4323F029
:103E200002058B682B430D4DA84201D0B04205D14D
:103E300023F00807CB683B4323F00403A84201D0DA
:103E4000B04205D14D6922F4407215438A692A4374
:103E500042608461496841630362F0BD0000014033
:103E600000040140F0B5026A036A23F01003036204
:103E7000436884690D6824F4E64444EA05248D68A7
:103E800022F0200242EA05120F4D104EA84201D046
:103E9000B04206D1CF6822F0800242EA071222F037
:103EA0004002A84201D0B04207D14D6923F44063DB
:103EB00043EA85038D6943EA850343608461496869
:103EC00081630262F0BD0000000001400004014077
:103ED000F0B5026A036A23F4807303624368C4691D
:103EE00022F4007224F073050C68124E2C438D6886
:103EF00042EA05220E4DA84201D0B04206D1CF6859
:103F000022F4006242EA072222F48062A84201D031
:103F1000B04207D14D6923F4405343EA05138D693C
:103F200043EA05134360C4614968C1630262F0BD9E
:103F3000000001400004014030B5046A026A22F426
:103F4000805202624268C3690D6823F4E64343EA83
:103F500005238D6824F4005444EA0534084DA84232
:103F600002D0084DA84204D14D6922F4804242EAB1
:103F700085124260C36149680164046230BD00007B
:103F8000000001400004014010B5036A046A24F0F7
:103F900001040462846924F0F00444EA021423F06A
:103FA0000A020A438461026210BD10B5036A046A02
:103FB00024F010040462846923F0A00324F4704404
:103FC00044EA023243EA01118261016210BD00003D
:103FD0000FB44FF4807100B5C1B043AB6846429A4C
:103FE000FCF710FA6846FCF727FA82B264236946A8
:103FF0000248FFF759FB41B05DF814FBB401002003
:1040000010B5806B0021C185FFF73AF910BD01683A
:104010000C3151E8002F22F4907241E80023002B6C
:10402000F5D10168143151E8002F22F0010241E876
:104030000023002BF5D1016B012909D101680C3156
:1040400051E8002F22F0100241E80023002BF5D1A7
:10405000202180F8421000210163704708B590F8D4
:104060004210222901D0022008BD82684FF48053FB
:104070009A4201D1016921B1816A9A421BD04AB1A9
:104080000AE00268816A5268C2F308020A80816A03
:10409000891C08E0026972B10268526802F07F026E
:1040A0000A70816A491C8162C18D491E0904090C8C
:1040B000C18503D01BE002685268F1E70168CA6855
:1040C00022F02002CA600168CA6822F48072CA60C5
:1040D00001684A6922F001024A61202180F84210F9
:1040E00000214163026B012A03D0FFF7B1FA0020DF
:1040F00008BD016301680C3151E8002F22F0100265
:1041000041E80023002BF5D101680A68D20602D5E8
:104110000A6849680091818DFFF7B1F8E7E7000070
:1041200070B5044600680169E26821F4405111430A
:1041300001612169A068E26908436169114308438C
:104140002168CA6849F20C639A430243CA60206836
:104150004169A26921F440711143416131492068EC
:10416000884202D03049884202D1FEF73BFA01E092
:10417000FEF728FAE2690023192164253226B2F5F8
:10418000004F626828D0A0FB0101930F9200FCF75A
:10419000C1F80146B0FBF5F06FF01802504301EB97
:1041A000800006EB0010B0FBF5F000F0F002B1FB70
:1041B000F5F002EB0012B1FBF5F06FF01803584375
:1041C00001EB800006EB0010B0FBF5F000F00F00F3
:1041D00021681044886070BDA0FB010192185B410A
:1041E000FCF798F80146B0FBF5F00201B1FBF5F0E1
:1041F0006FF01803584301EB800006EBC000B0FBE2
:10420000F5F000F0F80002EB4002B1FBF5F0584386
:1042100001EB800006EBC000B0FBF5F000F00700FA
:10422000D6E7000000100140001401408162828541
:10423000C28500214164222180F84210016921B128
:104240000168CA6842F48072CA6001684A6942F033
:1042500001024A610068C16841F02001C16000208C
:1042600070472DE9F843984617460D460446089EC8
:1042700024E0701C22D0FEF75BF8A0EB0800B042EF
:104280001AD8CEB12068C168490717D5802D15D03E
:10429000402D13D00168C94309070FD401680025D8
:1042A000406800902046FFF7B2FE0820606484F862
:1042B00040500120BDE8F8830320FBE72068006838
:1042C00035EA000004D00020B842D2D00020F1E747
:1042D0000120F9E70148FEF7D5BF00006C0100207E
:1042E0000148FEF7CFBF0000B4010020FEE7000048
:1042F00070B5124C01220025637A04F10B016BB1F9
:10430000AA280ED0A27A8854521CD0B2A0720728D4
:1043100009D365720878AA2806D00CE0AA2802D131
:1043200062720870A27270BD8879FF2803D10348B9
:104330000B3000F005F8A57270BD000032000020BF
:104340002DE9FF4742788378C478017990F8058099
:104350008579CDE90041CDE9028589460178174686
:104360001E46A2464FA0FFF733FE594801790129A6
:1043700070D100240472B8F1010F1AD0B8F1070F00
:1043800021D001202546B8F1000F23D0B8F1010F4C
:104390002ED0B8F1020F26D0B8F1030F25D0B8F116
:1043A000040F24D0B8F1050F1BD0B8F1060F22D0AE
:1043B0002EE0002FE5D1002EE3D1BAF1000FE0D1BD
:1043C000B9F1000FDDD1FFF7E7FB00F0CAF8FFF706
:1043D000D3F956E0BAF1000F00D00446B9F1000F4E
:1043E00006D0054604E0044612E0054610E0044607
:1043F00067B116B10CE00446F7E7FFF7CDFB00EE1E
:10440000107AB8EE400A00F0A2F805E006B1AFB1AC
:10441000FFF7C2FB00F0A5F8CCB100EE10AADFED6B
:104420002D0A2D4AB8EE400A2C4930EE200A10EE33
:10443000100A90420FDAB0EE600A12E0FFF7ACFB10
:1044400000EE106AB8EE400A00F086F8E4E7FFF7E5
:1044500093F908E023E010EE100A884201DD9FED99
:10446000200A00F0FFF865B100EE109A1D49B8EE81
:10447000400AB5EEC00AF1EE10FA06D29FED1A0A14
:1044800009E0BDE8FF47FFF761B910EE100A884266
:1044900001DD9FED160ABDE8FF4700F067B8BDE8F3
:1044A000FF8700002D3E20563A2025303258202527
:1044B00030325820253032582025303258202530CF
:1044C0003258202530325820253032580D0A00004D
:1044D000320000200000D2420000D24200002543FA
:1044E0000000254300000C430000000000000C43C6
:1044F00003B401984100009850EAC12018BF04207D
:104500004A0D18BF40F0010040F2FF72B2EB515F5C
:1045100008BF40F00200012808BF052002B0704724
:104520000907090E002804DB00F1E02080F80014E0
:10453000704700F00F0000F1E02080F8141D704774
:1045400030380A2801D201207047002070474FF40C
:10455000AF610220FFF73ABB40F254610220FFF73F
:1045600035BB40F2DC510220FFF706BB9FED181A65
:10457000DFED180A10B5B4EEC10AF1EE10FA02D25E
:10458000B0EE410A06E0B4EEE00AF1EE10FA01DD09
:10459000B0EE600ADFED100A9FED101A362060EED3
:1045A000200A80EE810ADFED0E0A30EE200ABCEE12
:1045B000C00A10EE104AFDF71BFF0A4804800A49A2
:1045C00001200870BDE810403620FDF722BF000032
:1045D000000000000000F0420000FA4400003443F4
:1045E0000000FA4324000020180000201E2170B5AE
:1045F000B0FBF1F2B0FBF1F501FB120447F23056CB
:1046000003E0304600F00EF86D1E002DF9D1002CAD
:1046100006D04FF47A706043BDE8704000F002B8F5
:1046200070BD000070B54FF0E024002265690949B3
:10463000A36909684843A1699942FCD002D2A3EB5F
:10464000010302E0A5EB010633441A440B46824203
:10465000F1D370BD140000209FED010A00F002B8F4
:104660000000074310EE100A154A10B51549904294
:1046700002DA9FED150A05E010EE100A884201DD0E
:104680009FED120ADFED120A9FED121A362060EE3E
:10469000200A80EE810ADFED100A30EE200ABCEE1F
:1046A000C00A10EE104AFDF7A3FE0C4804800C4926
:1046B00001200870BDE810403620FDF7AABE0000BA
:1046C0000000704200003443000070420000344398
:1046D0000000FA44000087430000FA43280000204D
:1046E00019000020FDF732FEFFF7ACFAFFF7CAF819
:1046F000FFF706FAFFF72AF9FFF7E0F9FFF790F85E
:10470000FFF780F9FFF718FA384940F2DC500A68E1
:1047100090630968C863364C4FF4FA702168886367
:104720003448FEF719FA04213048FEF745FC082109
:104730002E48FEF741FC04212046FEF73DFC206890
:10474000816941F4006181612068016841F0800164
:104750000160012228492948FEF76CFF01222849FF
:104760002848FEF767FFFFF777FF4FF47A70FDF7F1
:10477000D2FC25A0FFF72CFC2DA0FFF729FC35A0CB
:10478000FFF726FC3CA0FFF723FC3FA0FFF720FC2F
:1047900049A0FFF71DFC52A0FFF71AFC56A0FFF737
:1047A00017FC01265B4DDFF870915C4C4FF002085E
:1047B000002700BFFEF7F6FF012804D0022804D02E
:1047C000032805D00CE02E700AE085F8008007E091
:1047D00008214846FDF79FFD10214846FDF79BFD47
:1047E00020780128E6D12770E4E70000940000203B
:1047F000DC00002024010020320000206C01002099
:1048000034000020B40100200D0A3D3D3D3D3D3DFA
:104810003D3D3D3D3D3D3D3D3D3D3D3D3D3D3D3DC8
:104820003D3D3D3D3D3D3D3D3D3D3D0D0A000000D2
:10483000202053544D333220526F626F74204172E6
:104840006D20436F6E74726F6C2076312E300D0ABE
:10485000000000003D3D3D3D3D3D3D3D3D3D3D3D7C
:104860003D3D3D3D3D3D3D3D3D3D3D3D3D3D3D3D78
:104870003D3D3D3D3D0D0A00496E697420646F6EFB
:10488000652E0D0A000000005072657373204B45C1
:104890005920746F20737769746368206D6F646545
:1048A0002028313D4175746F2C20323D4D616E756D
:1048B000616C290D0A0000003D3D3D3D3D3D3D3D03
:1048C0003D3D3D3D3D3D3D3D3D3D3D3D3D3D3D3D18
:1048D0003D3D3D3D3D3D3D3D3D0D0A0D0A00000085
:1048E0004175746F207374617274757020656E61A8
:1048F000626C65640D0A00005374617274757020F7
:1049000073657175656E63652066696E6973686548
:10491000640D0A0036000020001402400000002050
:1049200070B5214C217902293CD100214A1E012574
:10493000112836D2DFE800F035090F1E2024261892
:1049400022283535353535352C006571FFF724F9CA
:1049500040F2546104E06271FFF71EF94FF4AF6159
:104960000220FFF709F91CE06171FFF715F9FFF765
:10497000F8FD16E0A57114E0A27112E0A17110E03B
:10498000E5710EE0E2710CE0E171FEF7DFFE08E098
:10499000064E08213046FDF7BEFC10213046FDF7DB
:1049A000BAFC257270BD00003200002000140240E5
:1049B00010B500290AD00878002807D005487844A7
:1049C000FCF7A8FD002801D0002010BD0248784463
:1049D00010BD0000920100008A01000010B50029FE
:1049E0000AD00878002807D005487844FCF792FDE3
:1049F000002801D0002010BD0248784410BD0000FE
:104A0000820100007A0100004FF04070E1EE100AD0
:104A10007047FCF78CB9FCF7C1BA00000000000039
:104A2000000001020304060708090000000001025B
:104A300003040000000000000000000030313233A9
:104A400034353637383941424344454640305800C2
:104A500030313233343536373839616263646566F4
:104A60004030780004000008000000000000000250
:104A700000010000103031323334353637383961B7
:104A800062636465667870003031323334353637AE
:104A90003839414243444546585000000240000026
:104AA000000000A00000000005400000000000C859
:104AB000000000000C4000000000409C00000000CE
:104AC000194000000020BCBE00000000344000007F
:104AD000BFC91B8E00000004B5400000504BCFD072
:104AE0006607E2CF010000006C4100003E8251AA3F
:104AF000DFEEA73401000000D9420000DCB5A0E2DF
:104B00003A301F97FFFFFFFFB4450000FD25A0C806
:104B1000E9A3C14FFFFFFFFFFF3F0000000000803F
:104B200000000000FF3F00000000008000000000C7
:104B30007C4C0008000000204C000000C40100086C
:104B4000C84C00084C00002014080000E0010008D8
:104B50001C00000043000000F8FFFFFF0C000000F5
:104B60000E0000000F0000002E00000010010000E9
:104B700043000000F8FFFFFF00404040404040403D
:104B80004040414141414140404040404040404020
:104B900040404040404040404005020202020202C4
:104BA0000202020202020202022020202020202013
:104BB0002020200202020202020290909090909027
:104BC00010101010101010101010101010101010E5
:104BD0001010101002020202020288888888888859
:104BE0000808080808080808080808080808080845
:104BF000080808080202020240000000000000004D
:104C000000000000000000000000000000000000A4
:104C10000000000000000000000000000000000094
:104C20000000000000000000000000000000000084
:104C30000000000000000000000000000000000074
:104C40000000000000000000000000000000000064
:104C50000000000000000000000000000000000054
:104C60000000000000000000000000000000000044
:104C70000000000000000000000000000000000034
:104C80000100000010000000000000000024F400FB
:104C90000000000000000000000000000000F4011F
:104CA000F401DC05DC05000000000000000000004D
:104CB00000000000000000000000000000000000F4
:084CC0000000074300000000A2
:040000050800018965
:00000001FF
